:020000020000FC
:0200000016C028
:10002C001BC00FEF0DBF08E00EBF0FE007B90FE1CB
:10003C0004B919E029E008E0009381000DE3009376
:10004C00890008E0009388000DE00093810002E035
:10005C0000936F00789407C01A9524F419E02A9540
:10006C000CF429E018950BD02898299A012F08B97F
:10007C0019D02998289A022F08B914D0F4CF022F3E
:10008C0007301CF405302CF408C02A9A2B982C98B5
:10009C0008C02A982B9A2C9804C02A982B982C9A32
:1000AC0000C0089542E358EC5A95F1F74A95D9F7F8
:0200BC000895A5
:00000001FF
