:020000020000FC
:0200000016C028
:10002C00BEC00FEF0DBF08E00EBF3BD00FE307B90A
:10003C000FE304B90CEF0AB900E0009300010FE5DF
:10004C000093010100E00093020105E0009303011D
:10005C0000E00093040105E00093050100E000932B
:10006C0006010FE10093070100E00093080108E08E
:10007C00009381000DE30093890008E00093880051
:10008C000DE00093810002E000936F0078940091E2
:10009C000801013021F428D000E00093080128D198
:1000AC00F6CF00E00093C50007E60093C40008E01B
:1000BC000093C10006E00093C20008953F93309175
:1000CC00C00035FFFCCF0093C6003F9108953F93CD
:1000DC00EF93FF933591303019F0032FEFDFFACF08
:1000EC00FF91EF913F910895EF93FF93E6E6F1E0D6
:1000FC00EEDFE0E7F1E0EBDF0091000119D0E8E77B
:10010C00F1E0E5DF0091020113D0E0E8F1E0DFDF80
:10011C00009104010DD0E8E8F1E0D9DF009106016F
:10012C0007D00DE0CBDF0AE0C9DFFF91EF91089516
:10013C00EF93FF93003029F0013031F0023039F0A9
:10014C0009C0E2E9F1E005C0ECE9F1E002C0E4EA43
:10015C00F1E0BDDFFF91EF91089553544154555395
:10016C003A20000050726169612D0000207C20450E
:10017C004A2D0000207C20444A2D0000207C205079
:10018C00616A752D00005665726D656C686F0000B4
:10019C00416D6172656C6F0056657264650007D0C5
:1001AC003BD05ED081D001E00093080118950091FE
:1001BC0001010A950093010171F5009100010030D5
:1001CC0021F0023049F0013071F002E0009300019F
:1001DC0009E1009301011FC001E00093000104E05C
:1001EC000093010118C000E0009300010FE500939B
:1001FC00010100E00093020105E00093030100E01F
:10020C000093040105E00093050100E00093060152
:10021C000FE1009307010895009103010A95E9F499
:10022C0000910201003021F0023049F0013071F0F0
:10023C0002E00093020106E1009303010EC001E00D
:10024C000093020104E00093030107C000E0009357
:10025C00020101E60093030100C00093030108951D
:10026C00009105010A95E9F400910401003021F098
:10027C00023049F0013071F002E00093040106E510
:10028C00009305010EC001E00093040104E000930B
:10029C00050107C000E00093040101E20093050191
:1002AC0000C0009305010895009107010A95E9F437
:1002BC0000910601003021F0023049F0013071F05C
:1002CC0002E0009306010CE3009307010EC001E06D
:1002DC000093060104E00093070107C000E00093BF
:1002EC00060107E30093070100C00093070108957E
:1002FC0005D01CD030D044D058D0089500910101C5
:10030C0022270A3018F00A502395FBCF102F48B142
:10031C00407F412B48B92898299A5CD048B1407F3E
:10032C00422B48B92998289A55D00895009100017C
:10033C00003029F0013039F0023049F008952A9A42
:10034C002B982C9808952A982B9A2C9808952A98D3
:10035C002B982C9A089500910201003029F001305D
:10036C0039F0023049F008955D9A5E985F980895CF
:10037C005D985E9A5F9808955D985E985F9A08956F
:10038C0000910401003029F0013039F0023049F0BD
:10039C0008955A9A5B985C9808955A985B9A5C9861
:1003AC0008955A985B985C9A089500910601003064
:1003BC0029F0013039F0023049F008952D9A449813
:1003CC00459808952D98449A459808952D984498E9
:1003DC00459A08953F934F9332E348EC4A95F1F7D1
:0A03EC003A95D9F74F913F9108951B
:00000001FF
